S01300006633646973636F766572792E73726563A0
S3150800000000A00020D92C00081D2D00081D2D000871
S315080000101D2D00081D2D00081D2D000800000000DC
S3150800002000000000000000000000000081610008D8
S315080000301D2D00080000000011620008AD2D000803
S315080000401D2D00081D2D00081D2D00081D2D00085A
S315080000501D2D00081D2D00081D2D00081D2D00084A
S315080000601D2D00081D2D00081D2D00081D2D00083A
S315080000701D2D00081D2D00081D2D00081D2D00082A
S315080000801D2D00081D2D00081D2D00081D2D00081A
S315080000901D2D00081D2D00081D2D00081D2D00080A
S315080000A09D5500081D2D00081D2D00080D5000083F
S315080000B06D55000879550008855500081D2D00085E
S315080000C01D2D00081D2D00081D2D00081D2D0008DA
S315080000D01D2D00082D5C00081D2D00081D2D00088B
S315080000E01D2D00081D2D00081D2D00081D2D0008BA
S315080000F01D2D00081D2D0008915500081D2D00080E
S315080001000000000000000000000000001D2D00088F
S315080001101D2D00081D2D00081D2D00081D2D000889
S315080001201D2D00081D2D00081D2D00081D2D000879
S315080001301D2D00081D2D000800000000000000000D
S315080001401D2D00081D2D00081D2D000800000000AB
S315080001500000000000000000000000000000000091
S3150800016000000000000000001D2D00081D2D0008DD
S315080001701D2D00080000000000000000000000001F
S30D08000180000000001D2D000817
S3150800019010B5054C237833B9044B13B10448AFF3B3
S315080001A000800123237010BDA8090020000000006C
S315080001B064820008084B10B51BB108490848AFF31C
S315080001C000800848036803B910BD074B002BFBD015
S315080001D0BDE81040184700BF00000000AC09002029
S315080001E064820008A809002000000000844641EA4D
S315080001F0000313F003036DD1403A41D351F8043B91
S3150800020040F8043B51F8043B40F8043B51F8043BE2
S3150800021040F8043B51F8043B40F8043B51F8043BD2
S3150800022040F8043B51F8043B40F8043B51F8043BC2
S3150800023040F8043B51F8043B40F8043B51F8043BB2
S3150800024040F8043B51F8043B40F8043B51F8043BA2
S3150800025040F8043B51F8043B40F8043B51F8043B92
S3150800026040F8043B51F8043B40F8043B51F8043B82
S3150800027040F8043B51F8043B40F8043B403ABDD2F1
S31508000280303211D351F8043B40F8043B51F8043B93
S3150800029040F8043B51F8043B40F8043B51F8043B52
S315080002A040F8043B103AEDD20C3205D351F8043B22
S315080002B040F8043B043AF9D2043208D0D2071CBFEE
S315080002C011F8013B00F8013B01D30B880380604617
S315080002D0704700BF082A13D38B078DD010F003038D
S315080002E08AD0C3F10403D21ADB071CBF11F8013BFD
S315080002F000F8013B80D331F8023B20F8023B7BE74C
S31508000300043AD9D3013A11F8013B00F8013BF9D276
S315080003100B7803704B7843708B7883706046704710
S3150800032081F0004102E000BF83F0004330B54FEA98
S3150800033041044FEA430594EA050F08BF90EA020F05
S315080003401FBF54EA000C55EA020C7FEA645C7FEA98
S31508000350655C00F0E2804FEA5454D4EB5555B8BFBB
S315080003606D420CDD2C4480EA020281EA030382EA2C
S31508000370000083EA010180EA020281EA0303362DBE
S3150800038088BF30BD11F0004F4FEA01314FF4801C91
S315080003904CEA113102D0404261EB410113F0004FA3
S315080003A04FEA03334CEA133302D0524263EB43035A
S315080003B094EA050F00F0A780A4F10104D5F1200EF8
S315080003C00DDB02FA0EFC22FA05F2801841F1000153
S315080003D003FA0EF2801843FA05F359410EE0A5F127
S315080003E020050EF1200E012A03FA0EFC28BF4CF058
S315080003F0020C43FA05F3C01851EBE37101F000450E
S3150800040007D54FF0000EDCF1000C7EEB00006EEB1A
S315080004100101B1F5801F1BD3B1F5001F0CD34908A4
S315080004205FEA30004FEA3C0C04F101044FEA4452FB
S3150800043012F5800F80F09A80BCF1004F08BF5FEA82
S31508000440500C50F1000041EB045141EA050130BD62
S315080004505FEA4C0C404141EB010111F4801FA4F105
S315080004600104E9D191F0000F04BF01460020B1FA5A
S3150800047081F308BF2033A3F10B03B3F120020CDA92
S315080004800C3208DD02F1140CC2F10C0201FA0CF070
S3150800049021FA02F10CE002F11402D8BFC2F1200CD5
S315080004A001FA02F120FA0CFCDCBF41EA0C0190408B
S315080004B0E41AA2BF01EB0451294330BD6FEA0404D4
S315080004C01F3C1CDA0C340EDC04F11404C4F12002BF
S315080004D020FA04F001FA02F340EA030021FA04F3D1
S315080004E045EA030130BDC4F10C04C4F1200220FA28
S315080004F002F001FA04F340EA0300294630BD21FA66
S3150800050004F0294630BD94F0000F83F4801306BF2B
S3150800051081F480110134013D4EE77FEA645C18BF1F
S315080005207FEA655C29D094EA050F08BF90EA020FB6
S3150800053005D054EA000C04BF1946104630BD91EAAE
S31508000540030F1EBF0021002030BD5FEA545C05D1B1
S315080005504000494128BF41F0004130BD14F58004F0
S315080005603CBF01F5801130BD01F0004545F0FE4164
S3150800057041F470014FF0000030BD7FEA645C1ABF99
S31508000580194610467FEA655C1CBF0B46024650EAD0
S31508000590013406BF52EA033591EA030F41F40021FC
S315080005A030BD00BF90F0000F04BF0021704730B582
S315080005B04FF4806404F132044FF000054FF0000157
S315080005C050E700BF90F0000F04BF0021704730B518
S315080005D04FF4806404F1320410F0004548BF4042ED
S315080005E04FF000013EE700BF42004FEAE2014FEA42
S315080005F031014FEA02701FBF12F07F4393F07F4F1D
S3150800060081F06051704792F0000F14BF93F07F4F4E
S31508000610704730B54FF4607401F0004521F0004191
S3150800062020E700BF50EA010208BF704730B54FF017
S3150800063000050AE050EA010208BF704730B511F01C
S31508000640004502D5404261EB41014FF4806404F154
S3150800065032045FEA915C3FF4DCAE4FF003025FEAD6
S31508000660DC0C18BF03325FEADC0C18BF033202EB5E
S31508000670DC02C2F1200300FA03FC20FA02F001FAB8
S3150800068003FE40EA0E0021FA02F11444C1E600BF57
S3150800069070B54FF0FF0C4CF4E06C1CEA11541DBF0A
S315080006A01CEA135594EA0C0F95EA0C0F00F0DEF8D5
S315080006B02C4481EA030621EA4C5123EA4C5350EABA
S315080006C0013518BF52EA033541F4801143F480130B
S315080006D038D0A0FB02CE4FF00005E1FB02E506F09C
S315080006E00042E0FB03E54FF00006E1FB03569CF0F1
S315080006F0000F18BF4EF0010EA4F1FF04B6F5007FF7
S3150800070064F5407404D25FEA4E0E6D4146EB060668
S3150800071042EAC62141EA55514FEAC52040EA5E50F1
S315080007204FEACE2EB4F1FD0C88BFBCF5E06F1ED89B
S31508000730BEF1004F08BF5FEA500E50F1000041EBD2
S31508000740045170BD06F0004646EA010140EA02007F
S3150800075081EA0301B4EB5C04C2BFD4EB0C0541EAA1
S31508000760045170BD41F480114FF0000E013C00F3B6
S31508000770AB8014F1360FDEBF002001F0004170BDDA
S31508000780C4F10004203C35DA0C341BDC04F11404F3
S31508000790C4F1200500FA05F320FA04F001FA05F27F
S315080007A040EA020001F0004221F0004110EBD3704C
S315080007B021FA04F642EB06015EEA430E08BF20EA78
S315080007C0D37070BDC4F10C04C4F1200500FA04F31B
S315080007D020FA05F001FA04F240EA020001F00041AD
S315080007E010EBD37041F100015EEA430E08BF20EA20
S315080007F0D37070BDC4F1200500FA05F24EEA020E68
S3150800080020FA04F301FA05F243EA020321FA04F096
S3150800081001F0004121FA04F220EA020000EBD3704D
S315080008205EEA430E08BF20EAD37070BD94F0000F4D
S315080008300FD101F00046400041EB010111F4801F81
S3150800084008BF013CF7D041EA060195F0000F18BF32
S31508000850704703F00046520043EB030313F4801F6E
S3150800086008BF013DF7D043EA0603704794EA0C0F28
S315080008700CEA135518BF95EA0C0F0CD050EA41063E
S3150800088018BF52EA4306D1D181EA030101F00041BB
S315080008904FF0000070BD50EA410606BF10461946E3
S315080008A052EA430619D094EA0C0F02D150EA0136EF
S315080008B013D195EA0C0F05D152EA03361CBF104630
S315080008C019460AD181EA030101F0004141F0FE41CF
S315080008D041F470014FF0000070BD41F0FE4141F453
S315080008E0780170BD70B54FF0FF0C4CF4E06C1CEA53
S315080008F011541DBF1CEA135594EA0C0F95EA0C0F08
S3150800090000F0A7F8A4EB050481EA030E52EA0335C2
S315080009104FEA013100F088804FEA03334FF08055E3
S3150800092045EA131343EA12634FEA022245EA111510
S3150800093045EA10654FEA00260EF000419D4208BFC1
S31508000940964244F1FD0404F5407402D25B084FEA6E
S315080009503202B61A65EB03055B084FEA32024FF41A
S3150800096080104FF4002CB6EB020E75EB030E22BF77
S31508000970B61A754640EA0C005B084FEA3202B6EB37
S31508000980020E75EB030E22BFB61A754640EA5C00E6
S315080009905B084FEA3202B6EB020E75EB030E22BF76
S315080009A0B61A754640EA9C005B084FEA3202B6EB77
S315080009B0020E75EB030E22BFB61A754640EADC0036
S315080009C055EA060E18D04FEA051545EA16754FEA98
S315080009D006164FEAC30343EA52734FEAC2025FEAB6
S315080009E01C1CC0D111F4801F0BD141EA00014FF045
S315080009F000004FF0004CB6E711F4801F04BF014316
S31508000A000020B4F1FD0C88BFBCF5E06F3FF6AFAE31
S31508000A10B5EB030C04BFB6EB020C5FEA500C50F1C1
S31508000A20000041EB045170BD0EF0004E4EEA113144
S31508000A3014EB5C04C2BFD4EB0C0541EA045170BD4B
S31508000A4041F480114FF0000E013C90E645EA060E8F
S31508000A508DE60CEA135594EA0C0F08BF95EA0C0FBD
S31508000A603FF43BAF94EA0C0F0AD150EA01347FF405
S31508000A7034AF95EA0C0F7FF425AF104619462CE7DC
S31508000A8095EA0C0F06D152EA03353FF4FDAE10463F
S31508000A90194622E750EA410618BF52EA43067FF490
S31508000AA0C5AE50EA41047FF40DAF52EA43057FF420
S31508000AB0EBAE12E74FEA4102B2F1E04324BFB3F5C9
S31508000AC0001CDCF1FE5C0DD901F0004C4FEAC002B7
S31508000AD04CEA5070B2F1004F40EB830008BF20F09B
S31508000AE00100704711F0804F21D113F13872BCBF55
S31508000AF001F00040704741F480114FEA5252C2F1AA
S31508000B001802C2F1200C10FA0CF320FA02F018BFF2
S31508000B1040F001004FEAC1234FEAD32303FA0CFC45
S31508000B2040EA0C0023FA02F34FEA4303CCE77FEAD4
S31508000B30625307D150EA01331EBF4FF0FE4040F41E
S31508000B404000704701F0004040F0FE4040F40000CD
S31508000B50704700BF70B4840746D0541E002A41D09F
S31508000B60CDB2034602E0621EE4B3144603F8015B05
S31508000B709A07F8D1032C2ED9CDB245EA05250F2CB4
S31508000B8045EA054519D903F110022646103E0F2EEF
S31508000B9042F8105C42F80C5C42F8085C42F8045CC7
S31508000BA002F11002F2D8A4F1100222F00F0204F0AA
S31508000BB00F041032032C13440DD91E462246043A5C
S31508000BC0032A46F8045BFAD8221F22F003020432ED
S31508000BD0134404F003042CB1C9B21C4403F8011BE6
S31508000BE0A342FBD170BC704714460346C2E700BF58
S31508000BF0024B13B1024800F005B870470000000028
S31508000C00110C0008002301461A46184600F014B8CD
S31508000C1038B5074D074C2C1BA41005D0013C55F8D8
S31508000C20043D9847002CF9D1BDE8384007F020BBB1
S31508000C3008870008048700082DE9F047254C256831
S31508000C40D5F848410646884692469946C4B3606830
S31508000C501F2817DC431C76B104EB80050122C5F872
S31508000C6088A0D4F8881182401143022EC4F888114E
S31508000C70C5F808911ED00230636044F82080002031
S31508000C80BDE8F087144B03B34FF4C87006F0D6FEE0
S31508000C900446D0B1D5F84831002780E88800C5F861
S31508000CA0484138460123C4F88871C4F88C71002E6F
S31508000CB0E1D0D1E7D4F88C110A43C4F88C21DAE7DD
S31508000CC005F5A674C5F84841C1E74FF0FF30BDE801
S31508000CD0F08700BFB88200083D7A0008704700BF59
S31508000CE0084B094A1B6810B5A2FB0323044698095A
S31508000CF000F08AFA214600224FF0FF3000F032FA5F
S31508000D00002010BD00000020D34D6210074A08B528
S31508000D10136843F010031360032000F011FA0F2044
S31508000D20FFF7DEFFFFF7DAFF002008BD00200240CC
S31508000D30024A136801331360704700BF841000200D
S31508000D40014B1868704700BF841000208C4609685C
S31508000D50002900F0DA802DE9F04FDFF8C4E183B00E
S31508000D6000254FF0010879E04FEA45090323D0F83A
S31508000D7000A003FA09F3DB4304F0030B0AEA030AAB
S31508000D800BFA09FB013F4BEA0A0A012FC0F800A03B
S31508000D9040F29780C768DCF808203B4002FA09F25F
S31508000DA01343C360E30055D5584B584A9B6943F033
S31508000DB001039361936925F0030909F1804903F05A
S31508000DC0010309F58039019305F00303019AD9F85F
S31508000DD008209B000F279F40B0F1904F22EA070298
S31508000DE000F086804A4FB84200F08480494FB842E6
S31508000DF000F08380484FB84200F08380474FB842DE
S31508000E000CBF0427052707FA03F31343C9F808306C
S31508000E10DEF80030F243E7034CBF33431340CEF805
S31508000E200030DEF80430A7034CBF33431340CEF836
S31508000E300430DEF80830E7024CBF33431340CEF8DF
S31508000E400830DEF80C30A40254BF02EA03061E433B
S31508000E50CEF80C60013531FA05F346D008FA05F2EA
S31508000E6012EA0106F6D0DCF8044024F01007022F37
S31508000E707FF47AAF4FEAD50B00EB8B0B05F0070A28
S31508000E80DBF82030DCF810704FEA8A0A4FF00F09B9
S31508000E9009FA0AF923EA090907FA0AF343EA0903E8
S31508000EA0CBF820304FEA45090323076803FA09F30C
S31508000EB0DB4304F0030A1F400AFA09FA4AEA07075D
S31508000EC00760876807EA030ADCF80C7007FA09F76F
S31508000ED047EA0A0787604768C4F3001A27EA020741
S31508000EE05246AA403A43426054E703B0BDE8F08F41
S31508000EF000238AE708FA03F387E7022707FA03F3CA
S31508000F0083E7032707FA03F37FE7704700100240D9
S31508000F100004004800080048000C0048001000487B
S31508000F20000401400AB9816270478161704700BFB9
S31508000F30026A22F48032F0B48F680C680262036A8F
S31508000F404568426D144E22F4803223F4003322F0B1
S31508000F507002B04243EA074342EA040215D00F4C36
S31508000F60A04212D004F54064A0420ED004F5806475
S31508000F70A0420AD004F58064A04206D049684560BC
S31508000F804265F0BC8165036270474C6925F480357B
S31508000F9045EA0425F2E700BF002C01400034014071
S31508000FA0F0B5046AD1F808E00F68174E24F48014E7
S31508000FB00462046A4568426D22F0807323F4E043B4
S31508000FC024F40012B04242EA0E5243EA072314D030
S31508000FD00E4CA04211D004F54064A0420DD004F591
S31508000FE08064A04209D004F58064A04205D049680F
S31508000FF045604365C1650262F0BD4C6925F48025EC
S3150800100045EA8425F3E700BF002C0140003401407F
S3150800101038B590F83C30012B2FD00D46022301211C
S31508001020044680F83C1080F83D30142A1ED8DFE8C4
S3150800103002F0391D1D1D4B1D1D1D5E1D1D1D0B1DA1
S315080010401D1D701D1D1D26002946006800F02EFC7A
S3150800105023682869D96941F40061D961D96921F4FD
S315080010608061D961DA6942EA0022DA610123002047
S3150800107084F83D3084F83C0038BD022038BD294646
S315080010800068FFF78DFF23682869596D41F40061F0
S315080010905965596D21F4806159655A6D42EA0022F5
S315080010A05A65E3E72946006800F03EFB23682A698B
S315080010B0996941F008019961996921F004019961DA
S315080010C099690A439A61D1E72946006800F06CFBE2
S315080010D023682869996941F400619961996921F43D
S315080010E0806199619A6942EA00229A61BEE72946B7
S315080010F0006800F09BFB23682A69D96941F008015A
S31508001100D961D96921F00401D961D9690A43DA613B
S31508001110ACE729460068FFF70BFF23682A69596D73
S3150800112041F008015965596D21F004015965596D59
S315080011300A435A659AE700BF704700BF704700BF69
S31508001140074AD1684FF6FF030B40000243F0BF631E
S3150800115000F4E06043F400330343D360704700BFF4
S3150800116000ED00E0194BDB68C3F3022330B4C3F18A
S315080011700705042D03F1040428BF0425062C18D9F5
S31508001180033B01249C40013C22400124AC40013C25
S31508001190214001FA03F3002842EA03020CDB00F1BE
S315080011A0604000F561401201D2B280F8002330BCDD
S315080011B0704700221346E8E7054B00F00F001201BE
S315080011C00344D2B21A7630BC704700BF00ED00E087
S315080011D0FCEC00E000F01F0101234009024A8B40A5
S315080011E042F82030704700BF00E100E04309203391
S315080011F000F01F000122034902FA00F041F823001B
S31508001200704700BF00E100E00138B0F1807F0ED2E0
S31508001210084B10B4084C5860F02084F823000022CC
S31508001220072110469A6019605DF8044B7047012043
S31508001230704700BF10E000E000ED00E00268486873
S31508001240936823F07003034330B423F480330C68A7
S3150800125023F0070323435028936036D024D9602807
S315080012600ED070280AD1CB688C6890680D69234324
S3150800127020F47F410B4343EA0523936030BC704753
S31508001280106A8C680D6920F0100010629169136A63
S3150800129021F4704123F0A00341EA053143EA04131F
S315080012A0916130BC136270474028E7D1146A106A0E
S315080012B00D6920F001011162936923F0F00343EAF6
S315080012C005139361146230BC7047136A106A8D68FF
S315080012D00C6920F001001062916923F00A0321F0DD
S315080012E0F0012B4341EA0411916130BC1362704747
S315080012F003680122186A02FA01F120EA010010B413
S3150800130018621A6A104C1143A342196216D00F4A82
S31508001310934213D002F5406293420FD002F58062E1
S3150800132093420BD002F58062934207D01A685DF8A3
S31508001330044B42F0010200201A6070475A6C42F4CE
S3150800134000425A64F2E700BF002C01400034014015
S3150800135003680122186A02FA01F120EA01001862FC
S315080013601A6A114319621A6842F001021A600020CB
S31508001370704700BF0C292FD8DFE801F0282E2E2E43
S31508001380222E2E2E1C2E2E2E07000368DA6842F017
S315080013901002DA60186A012202FA01F120EA010253
S315080013A01A621A6A114319621A6842F001021A602F
S315080013B0002070470368DA6842F00802DA60E9E755
S315080013C00368DA6842F00402DA60E3E70368DA6879
S315080013D042F00202DA60DDE70368DBE790F83C20BA
S315080013E0012A01D10220704738B504460125022397
S315080013F080F83C5080F83D30FFF720FF2368DA6814
S3150800140022F04002DA60DA68002122F48042DA60CB
S31508001410084684F83D5084F83C1038BD90F83C30B6
S31508001420012B02460AD00C2926D8DFE801F0102540
S315080014302525172525251E2525250900022070475F
S3150800144003681B6C0021184682F83C107047036835
S315080014505B6B0021184682F83C10704703689B6B4B
S315080014600021184682F83C1070470368DB6B0021A0
S31508001470184682F83C1070470023E3E7704700BF20
S31508001480704700BF704700BF704700BF03681A69FE
S31508001490910710B5044602D5DA68920762D41A692C
S315080014A0500702D5DA68510749D41A69120702D5D6
S315080014B0DA68100731D41A69D20602D5DA68D00676
S315080014C018D41A69D10702D5DA68D2076BD41A6913
S315080014D0100602D5DA6811066DD41A69520602D5C5
S315080014E0DA68500657D41A69910602D5DA68920660
S315080014F049D410BD6FF010021A61DB69082213F493
S31508001500407F2277204661D1FFF7BAFF2046FFF7D2
S31508001510B9FF002223682277D3E76FF008021A6121
S31508001520DB69042299072277204655D1FFF7A8FFE1
S315080015302046FFF7A7FF002223682277BBE76FF054
S3150800154004021A619B69022213F4407F227720461F
S315080015503FD1FFF795FF2046FFF794FF0022236847
S315080015602277A2E76FF002021A619B6901229B07A4
S31508001570027728D1FFF784FF2046FFF783FF002272
S31508001580236822778BE76FF0200220461A61BDE8B0
S315080015901040FFF7D1BD6FF040021A612046FFF7F1
S315080015A073FF23689FE76FF001021A612046FFF771
S315080015B065FF23688BE76FF080021A612046FFF704
S315080015C0BDFD236889E703F023FFD8E703F020FF72
S315080015D09FE703F01DFFC1E703F01AFFABE700BF63
S315080015E0324A03689042F0B44CD0B0F1804F24D010
S315080015F0A2F59432904220D002F5806290421CD027
S3150800160002F59632904218D002F54062904218D000
S3150800161002F58062904214D002F58062904210D0A2
S315080016204A698C68096823F0800313430360C4621F
S31508001630816201234361F0BC70474A6823F0700356
S315080016401343CA684C691A4D8F680E6823F44073B1
S315080016501A4322F080022243A8420260C7628662C9
S315080016600AD0144B984207D003F58063984203D0FA
S3150800167003F580639842DCD10B6903630123436158
S31508001680F0BC70474C68CA684D6923F070031C4368
S3150800169024F44074224322F080022A4302608B68B5
S315080016A0C3620B6883620B690363E7E7002C01409A
S315080016B00034014000400140B8B190F83D3010B503
S315080016C003F0FF0204465BB1022384F83D3020682C
S315080016D0211DFFF785FF012384F83D30002010BD4A
S315080016E080F83C2003F016FDEEE70120704700BFA6
S315080016F0B8B190F83D3010B503F0FF0204465BB16F
S31508001700022384F83D302068211DFFF769FF012375
S3150800171084F83D30002010BD80F83C2003F074FDAD
S31508001720EEE70120704700BFF0B5046A8F680E68BF
S315080017301B4D24F001040462036AD0F804E08269B0
S3150800174022F4803223F0020322F07302A84243EA0D
S31508001750070342EA060215D0124CA04212D004F53D
S315080017604064A0420ED004F58064A0420AD004F575
S315080017708064A04206D04968C0F804E082614163EB
S315080017800362F0BDCC684D6923F0080323438C69D6
S315080017902EF4407E2C4323F0040344EA0E0EEAE7B7
S315080017A0002C014000340140F0B5046AD1F808E085
S315080017B00F681C4E24F010040462046A45688269A6
S315080017C022F0807323F4E64324F02002B04242EA72
S315080017D00E1243EA072314D0134CA04211D004F585
S315080017E04064A04214D004F58064A04210D004F5E9
S315080017F08064A0420CD049684560836181630262B7
S31508001800F0BDCC6822F0800242EA041222F04002BF
S315080018104E698C6925F4406545EA860545EA8405DE
S31508001820E9E700BF002C014000340140F0B4046A27
S315080018308F680E681C4D24F480740462036A446839
S31508001840C26922F4803223F4007322F07302A8429C
S3150800185043EA072342EA060216D005F50065A842C0
S3150800186012D005F54065A84215D005F58065A84251
S3150800187011D005F58065A8420DD049684460C2615B
S31508001880F0BCC16303627047CD6823F4006343EA82
S31508001890052323F480634E698D6924F4405444EA91
S315080018A0061444EA0514E8E7002C0140F0B5046A7A
S315080018B0D1F808E00F68174E24F480540462046ACD
S315080018C04568C26922F0807323F4E64324F4005283
S315080018D0B04242EA0E3243EA072314D00E4CA04225
S315080018E011D004F54064A0420DD004F58064A042EE
S315080018F009D004F58064A04205D049684560C361F3
S3150800190001640262F0BD4C6925F4804545EA8415F8
S31508001910F3E700BF002C01400034014070B4046AAC
S31508001920174E24F001040462B0428569046A15D092
S31508001930B0F1804F12D0A6F59436B0420ED006F517
S315080019408066B0420AD006F59636B04206D006F54D
S315080019504066B04202D045F0010202E025F00305D8
S315080019602A431B01DBB222F0F00224F00A0401F03C
S315080019700A010C431A438261046270BC704700BFB7
S31508001980002C0140F8B590F83C30012B39D00D46B3
S3150800199002230121044680F83C1080F83D30002AD5
S315080019A031D0042A3FD0082A63D00168EB680A6A56
S315080019B02E68D5F804E0AF6822F480520A62CA6934
S315080019C0086A22F4407235031E0342EA0E2305F420
S315080019D02045B6B223F4704320F4204233432A4309
S315080019E0CB610A62CB6923F44063CB61CB6943EAD6
S315080019F00727CF610123002084F83D3084F83C0096
S31508001A00F8BD0220F8BD95E80600EB680068FFF708
S31508001A1085FF2368AA68996921F00C01996199697B
S31508001A200A439A61E6E70368EA68196A2E68D5F8F0
S31508001A3004E0AF6821F0100119629969186A21F467
S31508001A4040713501160341EA0E2205F0A005B6B22B
S31508001A5022F4704220F0A001324329439A611962A8
S31508001A609A6922F440629A619A6942EA07279F6155
S31508001A70C0E70368EA68196A2E68D5F804E0AF6813
S31508001A8021F480711962D969186A21F003013502B7
S31508001A9016014EEA010205F42065F6B222F0F002BC
S31508001AA020F4206132432943DA611962DA6922F0A7
S31508001AB00C02DA61DA691743DF619BE7704700BFFA
S31508001AC0C0B138B52422036880F869201A68002551
S31508001AD0044622F001021A601D605D609D60FFF7F2
S31508001AE0EDFFE56684F8685084F86950284684F85E
S31508001AF06A5038BD01207047F8B5054693482C68EA
S31508001B00AF682E6923686A69E969D5F818E03E4323
S31508001B10324323F416430A4323F00C03134323608A
S31508001B206768EE682A6A27F440573E436660A368EA
S31508001B304EEA020223F4306313438442A3603FD083
S31508001B40834B9C425ED0834B9C426BD0824B9C421B
S31508001B5019D0824B9C4205D0B1F5004F00F0CE80DB
S31508001B600120F8BD03F5E0331B6B03F44003B3F51E
S31508001B70800F7ED011D9B3F5000F5FD0B3F5400FB3
S31508001B8000F09980E8E703F5E2331B6B03F4401392
S31508001B90B3F5801F6DD000F28780002BDCD1B1F53C
S31508001BA0004F02D101F000F86EE000F0FDFF6B680F
S31508001BB000EB5300B0FBF3F080B2E0600020F8BD04
S31508001BC0674B684A1B6B03F00303B1F5004FD35C00
S31508001BD040F09780082B00F2918001A252F823F07A
S31508001BE0A51B0008851C0008BD1C0008FD1C000874
S31508001BF0791C0008FD1C0008FD1C0008FD1C0008D7
S31508001C00431C000803F5E6331B6B03F44033B3F5B6
S31508001C10803F2ED0C1D9B3F5003F0FD0B3F5403F72
S31508001C2049D099E703F5E4331B6B03F44023B3F576
S31508001C30802F1ED0B1D9B3F5002F4FD1B1F5004F83
S31508001C400DD16A68530803F58033B3FBF2F2C2F389
S31508001C50420322F00F0213439BB2002022E06A6877
S31508001C60530803F50043B3FBF2F39BB2E36000208D
S31508001C70F8BDB1F5004F02D100F09AFE04E000F07D
S31508001C8097FE94E700F0A8FF6A682C68530803EBF0
S31508001C904000B0FBF2F0C0F3420320F00F0003430C
S31508001CA09BB20020E360F8BDB3F5001FC6D0B3F5BC
S31508001CB0401F7FF451AFB1F5004F13D169684A0848
S31508001CC002F5740303F51053B3FBF1F3C3F34202B1
S31508001CD023F00F0313439BB20020E3E7B3F5402F2D
S31508001CE0E9D039E769684A0802F5F40303F5905321
S31508001CF0B3FBF1F39BB2E3600020F8BD002301209B
S31508001D00D0E7082B3FF62CAF01A252F823F000BF0C
S31508001D10AB1B0008351D0008E51C0008611B000800
S31508001D207F1C0008611B0008611B0008611B000876
S31508001D305F1C000800F050FF6B68044A00EB530074
S31508001D40B0FBF3F080B2D0600020F8BD0038014047
S31508001D500044004000480040004C0040005000404D
S31508001D60001002407C820008436ADA0710B406D5E0
S31508001D700468826A616821F400310A4362609C073C
S31508001D8006D50468C26A616821F480310A43626034
S31508001D90590706D50468026B616821F480210A4355
S31508001DA062601A0706D50468426B616821F400412F
S31508001DB00A436260DC0606D50468826BA16821F4D2
S31508001DC080510A43A260990606D50468C26BA168C9
S31508001DD021F400510A43A2605A0609D50168046C29
S31508001DE04A6822F480122243B4F5801F4A600BD059
S31508001DF01B0606D50168826C4B6823F4002313433F
S31508001E004B605DF8044B70474C68426C24F4C00480
S31508001E1022434A60ECE700BF2DE9F843089D804657
S31508001E200F4616469946D8F8004001E06B1C0AD1C1
S31508001E30E06937EA00030CBF012000208642F5D08E
S31508001E400020BDE8F8833DB1FEF77AFFC9EB000034
S31508001E508542E8D2D8F80040236823F4D07323607B
S31508001E60A368202223F001030021A360032088F839
S31508001E70692088F8681088F86A20BDE8F88300BFEA
S31508001E8070B50446002582B0C566FEF759FF23687B
S31508001E901A68120706460CD41B685B0717D420235A
S31508001EA0002084F8693084F8680084F86A3002B043
S31508001EB070BD6FF07E4300932A4603464FF4001127
S31508001EC02046FFF7A9FF80B1032002B070BD6FF06E
S31508001ED07E420092334600224FF480012046FFF7E7
S31508001EE09BFF0028DBD00320EFE72368D4E700BF79
S31508001EF090B390F8693010B503F0FF02044603B3B7
S31508001F002268242384F86930136823F001031360D8
S31508001F102046FFF7F1FD01281CD0636AB3B9236890
S31508001F205A6822F490425A609A6822F02A029A6005
S31508001F301A6842F0010220461A60BDE81040FFF711
S31508001F409FBF80F8682003F06FF8D9E72046FFF7AF
S31508001F500BFFE4E7012010BD0120704703684168C4
S31508001F605A68B1F5827F22F0E0025A6013D0826A7D
S31508001F70B2F5005F07D11A6822F400521A601A688F
S31508001F8042F400521A600122002380F85D2080F88E
S31508001F905C30032070478268B2F5004F02D0B2F574
S31508001FA0806FE4D11A6822F040021A60DFE700BFAA
S31508001FB0F0B5064683B00C4615461F46316801E063
S31508001FC06B1C0DD18868204013D0B4F5C06FF7D1CB
S31508001FD00A7BD2B28DF807206B1C9DF80720F1D03A
S31508001FE025B1FEF7ADFEC01B8542E7D83046FFF7A0
S31508001FF0B5FF03B0F0BD00BF70B505460C461646E2
S315080020002868836803F080030BB9002070BD631C41
S31508002010F7D024B1FEF794FE801B8442F0D82846F8
S31508002020BDE87040FFF79ABF70B513460D461646D1
S315080020300A464FF4C0510446FFF7BAFF28B1236E8B
S3150800204043F020032366032070BD32462946204606
S31508002050FFF7D2FF0028F2D1F6E700BF2DE9F843D3
S315080020600446012084F85C00884616469946089D71
S31508002070FEF766FE94F85D206168D2B2012A07462B
S3150800208010D0B1F5827F08D002200122002384F8FF
S315080020905D2084F85C30BDE8F883A368002BF3D193
S315080020A0042AF1D1B8F1000F00F09380002E00F059
S315080020B09080B9F1000F00F08C8094F85D30E268EA
S315080020C02664042B1CBF052384F85D300023B2F573
S315080020D0E06F2366A4F84490A4F84690C4F83880C4
S315080020E0A4F83C90E3642365A4F83E9073D8B4F84A
S315080020F046309BB2012B2368586840F2CE8020F404
S31508002100805058601868400606D41868B2F5E06F23
S3150800211040F04000186066D8002940F0B380E28F8E
S3150800212092B2012A40F2E68038F8022BDA60E38F91
S31508002130023B9BB2E3874FF00109E38F9BB22BB9B1
S31508002140B4F846309BB2002B00F08F80B9F1000F2F
S3150800215017D0E38F9BB2002B00F0AA8023689A68F9
S31508002160910740F1A580E28F92B2012A40F2B6802B
S3150800217038F8022BDA60E38F023B9BB2E3874FF015
S315080021800009B4F846309BB2D3B123689A68D207DF
S3150800219016D5B4F8462092B2012A40F28C80DA6845
S315080021A026F8022BB4F84620023A92B2A4F8462042
S315080021B0B4F8462092B2012A40F289804FF001090C
S315080021C06B1CBAD0FEF7BCFDC01B8542B5D80320F0
S315080021D05BE7012059E72368586820F48050586067
S315080021E01868400691D5002952D138F8022BDA60D2
S315080021F0E38F013B9BB2E3874FF00109E38F9BB264
S3150800220023B9B4F846309BB2002B2ED0B9F1000F93
S3150800221010D0E38F9BB2002B47D023689A689107AA
S3150800222043D538F8022BDA60E38F013B9BB2E3878C
S315080022304FF00009B4F846309BB273B123689A6828
S31508002240D2070AD5DB6826F8023BB4F84630013BCC
S315080022509BB2A4F846304FF00109681CCED0FEF7B1
S315080022606FFDC01B8542C9D8B1E73A4629462046C4
S31508002270FFF7DAFE08B120232366206E003018BF68
S31508002280012002E7E28F92B2012A7FF454AF46E7B3
S31508002290E28F92B2012AAFD1A7E740F48050586086
S315080022A0186840063FF538AF2FE74FF00109C1E738
S315080022B04FF0010965E71B7B3370B4F84630013BE4
S315080022C09BB20136A4F846304FF0010978E75A6800
S315080022D042F480525A604FF0010971E798F80020DD
S315080022E01A73E38F013B9BB208F10108E3874FF0AD
S315080022F0000946E798F800201A73E38F013B9BB262
S3150800230008F10108E38716E700286CD0F0B590F8C5
S315080023105D30002283B0044603F0FF018262002B81
S3150800232052D00223216884F85D300B68E26823F0F6
S315080023304003B2F5E06F0B600AD9B2F5706F4AD167
S31508002340236BA56A002B44D10223236300270FE0E1
S3150800235007D0256B0023A36235B11D464FF480577D
S3150800236006E0236BA56A0BB9012323634FF4805754
S315080023706368A66820691E4306436069A369064325
S31508002380E0690643206A0190606A42EA000C019AF5
S3150800239003F4007016431A0C636B02F004024CEA4D
S315080023A00303304313433B4340EA05020A604B608C
S315080023B0CB69002223F4006301251046CB6122660F
S315080023C084F85D5003B0F0BD80F85C1002F0D2FED0
S315080023D0A7E70027CCE7256B0023A362002DB3D01F
S315080023E01D461F46C4E70120704700BF30B490F869
S315080023F05C40012C02D1022030BC704730BCFFF78C
S315080024002DBE00BF2DE9F0430368D90783B0044603
S3150800241043D5C2494A6802F00C02042A00F08881B2
S315080024204A6802F00C02082A00F07E816368B3F558
S31508002430803F00F04282002B00F0A681B3F5A02F62
S3150800244000F09F82B54B1A6822F480321A601A6827
S3150800245022F480221A60B14DA368EA6A22F00F02BC
S315080024601343EB62FEF76CFC4FF40038074601266F
S3150800247005E0FEF765FCC01B642800F2BE8198FAE9
S31508002480A8F32A6898FAA8F3B3FA83F303F01F03AC
S3150800249006FA03F31342ECD023689F0744D59F4AF4
S315080024A0516811F00C0F00F0F980516801F00C0129
S315080024B0082900F0EF802269002A00F0D88101225D
S315080024C092FAA2F3B3FA83F303F1845303F5841360
S315080024D09B0016461A60FEF733FC4FF002080746C3
S315080024E08E4D05E0FEF72CFCC01B022800F2858104
S315080024F098FAA8F389492A6898FAA8F3B3FA83F3ED
S3150800250003F01F0306FA03F31342EBD00A68F82315
S3150800251093FAA3F36069B3FA83F322F0F80200FA98
S3150800252003F313430B6023681D074FD458077BD565
S315080025307A4BDA69D10000F11281DA6942F08052E9
S31508002540DA61DB6903F080530193019B4FF00108C0
S31508002550734D2B68DA0540F14081E368012B00F0E2
S31508002560B281002B00F05781052B6C4B1A6A00F0DC
S31508002570158222F001021A621A6A22F004021A620D
S31508002580FEF7DEFB4FF002090746644E012515E00B
S3150800259099FAA9F3726A99FAA9F3B3FA83F303F0DD
S315080025A01F0305FA03F3134240F02B81FEF7C8FB1D
S315080025B041F28833C01B984200F21F8199FAA9F3A9
S315080025C099FAA9F3002BE3D0326AE4E7A269002A54
S315080025D07BD0012292FAA2F1524B504EB1FA81F108
S315080025E00B449B0015461A60FEF7AAFB4FF002083B
S315080025F0074605E0FEF7A4FBC01B022800F2FD8093
S3150800260098FAA8F398FAA8F398FAA8F3726A98FAC7
S31508002610A8F3B3FA83F303F01F0305FA03F313428F
S31508002620E8D02368580783D4E3697BB33B4D6A68CF
S3150800263002F00C02082A44D0022B4FF0807300F0F7
S31508002640488193FAA3F3B3FA83F303F1845303F5AA
S3150800265084139B0000221A60FEF772FB4FF0007489
S315080026600746012605E0FEF76BFBC01B022800F2B1
S31508002670C48094FAA4F32A6894FAA4F3B3FA83F309
S3150800268003F01F0306FA03F31342ECD1002003B04C
S31508002690BDE8F0835268D6033FF50DAF022292FAE1
S315080026A0A2F11E49086892FAA2F2B2FA82F202F080
S315080026B01F02012101FA02F2024253D022698A421C
S315080026C050D0012003B0BDE8F083012595FAA5F1A5
S315080026D0144B124EB1FA81F10B449B004FF00208DD
S315080026E01A60FEF72DFB074605E0FEF729FBC01B1F
S315080026F0022800F2828098FAA8F398FAA8F398FAC2
S31508002700A8F3726A98FAA8F3B3FA83F303F01F03DF
S3150800271005FA03F31342E8D183E700BF001002402D
S3150800272000700040208190104A68D2037FF57EAE83
S315080027304FF4003292FAA2F19C49086892FAA2F282
S31508002740B2FA82F202F01F02012101FA02F20242F3
S315080027503FF4A3AE6268002A7FF49FAEB1E74FF05C
S315080027600008F5E6914DF822296892FAA2F2606906
S31508002770B2FA82F221F0F80100FA02F20A432A605C
S315080027801D077FF5D3AE21E7884D2B6823F48033E8
S315080027902B602B6823F480232B60EA6AA36822F057
S315080027A00F021343EB62FEF7CBFA4FF400380746E5
S315080027B0012604E0FEF7C4FAC01B64281DD898FA5F
S315080027C0A8F32A6898FAA8F3B3FA83F303F01F0369
S315080027D006FA03F31342EDD15EE62B6843F48073E1
S315080027E02B60FEF7ADFA06462B68DB053FF5B5AE5E
S315080027F0FEF7A6FA801B6428F6D9032003B0BDE8C5
S31508002800F083B8F1000F3FF40FAF684AD36923F09D
S315080028108053D36108E7654D2B6A23F001032B62C9
S315080028202B6A23F004032B62FEF78AFA4FF002099B
S315080028300746012613E099FAA9F36A6A99FAA9F3F1
S31508002840B3FA83F303F01F0306FA03F31342D8D04F
S31508002850FEF776FA41F28833C01B9842CDD899FA2A
S31508002860A9F399FAA9F3002BE5D02A6AE6E7012528
S3150800287095FAA5F3B3FA83F303F1845303F58413A6
S315080028809B004FF002081A60FEF75AFA474E0746B1
S3150800289004E0FEF755FAC01B0228AED898FAA8F34A
S315080028A0326898FAA8F3B3FA83F303F01F0305FA1C
S315080028B003F31342EDD1236836E63C4A136843F422
S315080028C080331360C7E5394A136A43F0010313627C
S315080028D056E693FAA3F3B3FA83F303F1845303F5A5
S315080028E084139B0000221A60FEF72AFA4FF000783C
S315080028F00746012605E0FEF723FAC01B02283FF625
S315080029007CAF98FAA8F329492A6898FAA8F3B3FA83
S3150800291083F303F01F0306FA03F313424FF0010093
S31508002920E9D14B68656A226A23F474132A43134370
S315080029304B604FF0807393FAA3F3B3FA83F303F172
S31508002940845303F584139B000C4618600546FEF76E
S31508002950F7F94FF00076074605E0FEF7F1F9C01BD8
S3150800296002283FF64AAF96FAA6F3226896FAA6F325
S31508002970B3FA83F303F01F0305FA03F31342ECD00B
S3150800298084E603F18043A3F53C331A6842F48022B7
S315080029901A601A6842F480321A605CE542F0040252
S315080029A01A621A6A42F001021A62E9E50010024048
S315080029B0164A536803F00C01082924D110B44FF4C1
S315080029C0701191FAA1F103F47010B1FA81F120FAAD
S315080029D001F10F4CD06A625C0F2191FAA1F100F067
S315080029E00F00B1FA81F120FA01F12144DB03087CDA
S315080029F054BF0848084B5DF8044B48BFB3FBF0F0DA
S31508002A0000FB02F070470448704700BF0010024000
S31508002A108082000800093D0000127A005E4A1368A9
S31508002A2003F007038B422DE9F0410CD2136823F01B
S31508002A3007030B431360136803F00703994202D098
S31508002A400120BDE8F08103689C0706D5534D8268CE
S31508002A506C6824F0F00422436A600C46D9070646DF
S31508002A6031D54368012B00F08480022B0CBF4FF050
S31508002A700072022292FAA2F14849086892FAA2F272
S31508002A80B2FA82F202F01F02012101FA02F20242B0
S31508002A90D6D0424D6A6822F0030213436B60FEF7F4
S31508002AA04FF97368012B074641F288384DD0022B3F
S31508002AB005D155E0FEF744F9C01B404556D86B686A
S31508002AC013F00C0FF6D1344A136803F007039C423F
S31508002AD009D2136823F0070323431360136803F02E
S31508002AE007039C42ACD133685A0706D52B48F268CF
S31508002AF0416821F4E0610A4342601B0707D5274A6B
S31508002B003169536823F4605343EAC1035360FFF7FE
S31508002B104FFF224B0146F0225B6892FAA2F2B2FA04
S31508002B2082F203F0F003D3401D481E4AC35C0F200F
S31508002B3021FA03F31360FEF7D3F80020BDE8F0810D
S31508002B40FEF7FEF8C01B404510D86B6803F00C036F
S31508002B50042BF5D1B7E7FEF7F3F8C01B404505D8B7
S31508002B606B6803F00C03082BF5D1ACE70320BDE82E
S31508002B70F0814FF4003292FAA2F10849096892FAF4
S31508002B80A2F2B2FA82F202F01F0203FA02F20A4233
S31508002B907FF47FAF54E700BF0020024000100240D8
S31508002BA0A082000800000020084B4FF4E0625B6832
S31508002BB092FAA2F2B2FA82F203F4E063D34004492D
S31508002BC0044ACB5C1068D840704700BF001002402A
S31508002BD0B082000800000020084B4FF460525B6882
S31508002BE092FAA2F2B2FA82F203F46053D34004498D
S31508002BF0044ACB5C1068D840704700BF00100240FA
S31508002C00B0820008000000201749184B184A1948D6
S31508002C1010B4D1F8884044F47004C1F888401C68A0
S31508002C2044F001041C605C6822405A601A6822F06D
S31508002C30847222F480321A601A6822F480221A609A
S31508002C405A6822F4FE025A60DA6A22F00F02DA6241
S31508002C501A6B002410404FF0006218639C608A606B
S31508002C605DF8044B704700BF00ED00E0001002401D
S31508002C700CC07FF8CCFC00FF12494B6803F00C032C
S31508002C80082B0AD14B684868C3F383439A1CC303CD
S31508002C900ED40D4B03FB02F300E00C4B094A0C481B
S31508002CA052680C49C2F30312825CD3400B6070472A
S31508002CB0CB6A064903F00F030133B1FBF3F302FBBA
S31508002CC003F3EBE70010024000093D0000127A000A
S31508002CD0A082000800000020002103E00A4B5B5890
S31508002CE04350043109480A4B42189A42F6D3094A16
S31508002CF002E0002342F8043B074B9A42F9D3FFF758
S31508002D0083FF00F061F8FEE708870008000000204E
S31508002D10A8090020A809002014260020FEE70000C4
S31508002D2010B50020B0B001F029F901F079F90028B2
S31508002D30FBD04FF4FA7001F0D5FE17AC03F084FC13
S31508002D4003F084FC03F088FC03F08CFC03F090FC91
S31508002D5000F078F800F098F802E0012001F0C2FED1
S31508002D6002F04CF90028F8D0204601F065F91BA9B5
S31508002D7054226846FDF73AFA94E80F0000F0AAF8DC
S31508002D8000F088F800F03AF900F0B2F9032300934E
S31508002D900349044B0448042200F00AFBDDE700BFA0
S31508002DA0BC820008F01500208810002008B501F044
S31508002DB0E1FF012801D003F05DFAFDF7B9FFBDE890
S31508002DC0084003F09BBC00BF00B583B002F0F6FADA
S31508002DD003F08CFC0021154801F0E4FA1349144865
S31508002DE000F0C0FA02F0DCFE02F094FE00231A4658
S31508002DF01946104803F0DEFA002814DB00231A46A9
S31508002E0019460D4803F0D6FA00280DDB02220023E6
S31508002E108DE80C0009490A484FF4806201F058FC15
S31508002E2001F02AFDFEE7FEE7FEE700BFFC150020DD
S31508002E308810002004000020B8000020C482000882
S31508002E40212D000830B40D4BDFED0D0A9FED0D0A5C
S31508002E50002400251C6003F120015C6003F1480092
S31508002E609C600122DC60B7EE001A1C615C619C6103
S31508002E701D775D7730BC01F07FB900BFC809002017
S31508002E807B14AE3D0AD7233B014B01221A777047C4
S31508002E90C809002010B50C4C0C48D4F8B8108AB0F4
S31508002EA003F012FB69460A4803F00EFBD4F8B83063
S31508002EB00099D4F8B82019600199D4F8B83051604F
S31508002EC0029A9A600AB010BDC8090020B80000200E
S31508002ED00400002084B008B50DF1080E8EE80F0036
S31508002EE001F0A4F8002866D0DDED057ABFEE007A79
S31508002EF0F4EEC77AF1EE10FA68D9B7EE007AF4EE76
S31508002F00477AF1EE10FAA8BFF0EE477A394B9DEDF5
S31508002F10087AC3ED007AFFEE007AB4EEE77AF1EEAE
S31508002F2010FA5CD9F7EE007AB4EE677AF1EE10FA89
S31508002F30A8BFB0EE677ADDED0B7A83ED017ABFEEB6
S31508002F40007AF4EEC77AF1EE10FA45D9B7EE007AB0
S31508002F50F4EE477AF1EE10FAA8BFF0EE477A9DED47
S31508002F60027AC3ED027AFFEE007AB4EEE77AF1EE62
S31508002F7010FA2ED9F7EE007AB4EEE77AF1EE10FAE7
S31508002F8030DBC3ED037AD3ED037AF5EEC07AF1EEC2
S31508002F9010FA2CD9B6EE087AF4EE477AF1EE10FA62
S31508002FA0A8BFF0EE477A0122C3ED037A5A77BDE847
S31508002FB0084004B070470F4B00221A605A609A60A6
S31508002FC0DA605877BDE8084004B07047F0EE477AF3
S31508002FD09CE7DFED097AD4E7F0EE477ABFE7B0EE73
S31508002FE0677AA8E7F6EE007AE7EE277AC9E7DFED13
S31508002FF0027AD8E7C80900200000000010B5374C4F
S31508003000237F012B27D0227F344B1ABBD3ED006ACE
S31508003010DFED337ADFED335A66EEA76AB5EE006A5E
S3150800302066EE866A66EEA56AC3ED046AD3ED016AA2
S3150800303066EEE76A66EE866A66EEA56AC3ED056A17
S3150800304093ED027A27EE257A67EE277A67EE867A77
S31508003050C3ED067A10BD04F1480001F0C1F803F08B
S315080030606BFB94ED125ADFED1E6AD4ED137AD4ED9C
S31508003070004A94ED127ADFED1C5A1C4B64EEA64A00
S31508003080B5EE006A94EE867A25EE255A37EE077A6B
S3150800309067EEA55A84ED047AD4ED017A94ED137A95
S315080030A083ED000A67EEE67AC5EE264A97EE867A3B
S315080030B085EEA65A37EE077AC3ED014A84ED057AFE
S315080030C0D4ED027A83ED025A77EEA77A67EEA67AEE
S315080030D067EE867AC4ED067A95E700BFC809002030
S315080030E0DB0F4940CDCC0C4000003443F0150020DE
S315080030F008B5644BDFED644AD3F8B820DFED635AB0
S31508003100D2ED033AD3F8B810D3F8B82091ED044AB3
S3150800311092ED055A93ED047A93ED056AD3ED066AA6
S3150800312093ED030A9FED5A3A63EEA43A24EE244A35
S31508003130C3EEA57A25EE245AC4EE253A77EE677AC9
S3150800314085EE257A2DED048B9FED528A36EE636A5D
S3150800315067EE887A26EE086A37EE800A36EEC77A70
S3150800316030EE060A27EE087A30EE470AB4EEC30AAE
S31508003170F1EE10FA66D9DFED486AB4EE660AF1EEAA
S3150800318010FAA8BFB0EE660A93ED039ADFED406A1F
S3150800319039EE679A39EE069A39EE079AB4EEE69A48
S315080031A0F1EE10FA6BD9DFED3C6AB4EE669AF1EEF1
S315080031B010FAA8BFB0EE669AD3ED038ADFED346A3B
S315080031C078EEE78A78EEC68A78EEC78AF4EEE68A5B
S315080031D0F1EE10FA50D9DFED306AF4EE668AF1EEB8
S315080031E010FAA8BFF0EE668A93ED038ADFED286A27
S315080031F077EE887A77EEC67A37EE878AB4EEE68A6D
S31508003200F1EE10FA21D9DFED247A5B7FB4EE678AF6
S31508003210F1EE10FAA8BFB0EE678ADBB99FED1F0A78
S3150800322003F02CFA9FED1D0A03F036FA9FED1B0AF0
S3150800323003F040FABDEC048B9FED180ABDE8084080
S3150800324003F046BAB0EE430A9EE75B7FB0EE668AA5
S31508003250002BE3D003F012FAB0EE490A03F01CFA89
S31508003260B0EE680A03F026FAB0EE480ABDEC048B05
S31508003270BDE8084003F02CBAF0EE668AB4E7B0EE73
S31508003280669A99E7C8090020DB0F494000003443D5
S315080032900AD7233CCDCCCC3DA4707D3F000000006E
S315080032A02DE9F0430C4693B00646154601A844227C
S315080032B099469DF86880FCF799FF62780123D4182F
S315080032C01846002112AF3844013310F8440CDBB21B
S315080032D00144A34289B21846F4DD0C2D0DD9A5F197
S315080032E00D07FFB20C3701AB1F440DF10F0414F89C
S315080032F0010F0144A74289B2F9D119FB08F805EB79
S315080033000804A5420CDA28462B4612AF3B44013086
S3150800331013F8443CC0B21944A04289B20346F4DB10
S31508003320753188B2030A01A98DF845000232306862
S315080033308DF8463001F0EAF8A5F10C0204A93068C8
S3150800334001F0E4F801AB59194246306801F0DEF89D
S31508003350306802220DF1450101F0D8F813B0BDE836
S31508003360F08300BF024670B4002442F8441B00F5FF
S315080033703B762546134603F8404D03F8014F934222
S315080033804FF00001F9D103F14402B2425D709D701D
S31508003390F0D1C0F85415C0F85C15C0F85815C0F837
S315080033A0601580F8641580F8651570BC704700BF15
S315080033B070B5B4B006469DF8E040009403A803AC87
S315080033C000F02AF80FCC13AD0FC50FCC0FC50FCCE4
S315080033D00FC594E80F00732485E80F0023AA8DF81B
S315080033E08C400DF14E030DF18B0013F8011F02F806
S315080033F0011F8342F9D10422009200249DF81B3054
S315080034008DF8CD4023A930460E228DF8CE40FFF721
S3150800341047FF34B070BD00BF70B4C2709DF80C6031
S315080034204AB1033202440139C41C11F8015F04F899
S31508003430015F9442F9D10122C67382734EB1311DE0
S3150800344000EB8101103053F8042B40F8042B884216
S31508003450F9D170BC704700BF70B51546026C866B13
S31508003460044632B905683DBB406801F0DDFC65607D
S3150800347029E06DB98068FCF7B9FEA168236C62681B
S315080034800B449342A36019D32368A36028461AE025
S31508003490C068FCF7ABFE236CE26821685B421A44FD
S315080034A08A42E26002D262681344E360022D07D1C1
S315080034B046B1013E002006E0104604E0284602E038
S315080034C0002000E030460136A66370BD026C034654
S315080034D072B110B40846D9685C681144A142D96033
S315080034E024BF1968D960D9685DF8044BFCF77EBE1D
S315080034F0704700BF70B5054602F054FE95F8454082
S3150800350064B2002C16DD6B6AA3B105F1240605E04A
S31508003510013CE3B25CB26BB16B6A5BB1304601F059
S3150800352095FB0028F4D0013C01F01CFCE3B25CB228
S31508003530002BF1D1FF2385F8453002F055FE02F045
S3150800354031FE95F8444064B2002C16DD2B69A3B110
S3150800355005F1100605E0013CE3B25CB26BB12B69DC
S315080035605BB1304601F072FB0028F4D0013C01F053
S31508003570F9FBE3B25CB2002BF1D1FF2385F84430A6
S31508003580BDE8704002F030BE38B5E0B104460D46DD
S3150800359002F008FE226CE36B2168A16003FB02F3CC
S315080035A09A1A0A440B440020FF21A063E26084F8BB
S315080035B04410636084F8451005BB236963B902F0BB
S315080035C013FE012038BD4FF0400383F31188BFF383
S315080035D06F8FBFF34F8FFEE704F1100001F036FB43
S315080035E00028ECD00B4B4FF080521A60BFF34F8F78
S315080035F0BFF36F8F02F0F8FD012038BD04F110000B
S3150800360000F0CCFF04F1240000F0C8FF02F0ECFD46
S31508003610012038BD04ED00E0F8B540B94FF040038D
S3150800362083F31188BFF36F8FBFF34F8FFEE706460C
S3150800363001FB00F0503017460D4603F0A5F8044686
S3150800364048B155B92060E663256401212046FFF795
S315080036509BFF84F84C702046F8BD00F150030360C8
S31508003660F1E700BF2DE9F04784B00192002800F089
S31508003670A780002900F09780022B00F08780044677
S315080036801F46894601F076FB50B9019E4EB14FF0B0
S31508003690400383F31188BFF36F8FBFF34F8FFEE7A5
S315080036A000264FF00008DFF838A127E002F09CFD5D
S315080036B001F01AF902F076FD94F84430FF2B08BFA2
S315080036C084F8448094F84530FF2B08BF84F8458079
S315080036D002F08AFD01A902A801F002FB002878D1B0
S315080036E002F060FDA26BE36B9A4217D002F07CFDF4
S315080036F02046FFF7FFFE01F081F9012602F052FD90
S31508003700A26BE36B9A4226D3022F24D0019DE5B122
S31508003710002ECBD102A801F0D5FAC7E702F064FD66
S31508003720019904F1100001F077FA2046FFF7E2FE4E
S3150800373001F064F90028E0D14FF08053CAF8003050
S31508003740BFF34F8FBFF36F8FD7E702F04DFD2846C3
S3150800375004B0BDE8F0873A4649462046FFF77CFEA6
S31508003760636A63B938B11E4B4FF080521A60BFF3D3
S315080037704F8FBFF36F8F02F037FD0120E8E704F1A2
S31508003780240001F063FA0028EDD1F4E7C26B012AA0
S315080037903FF475AF4FF0400383F31188BFF36F8F83
S315080037A0BFF34F8FFEE7026C002A3FF465AF4FF078
S315080037B0400383F31188BFF36F8FBFF34F8FFEE784
S315080037C04FF0400383F31188BFF36F8FBFF34F8F1A
S315080037D0FEE72046FFF78EFE01F010F90020B7E756
S315080037E004ED00E02DE9F04784B00192002800F0CE
S315080037F08D80002900F0BB8004469946884601F072
S31508003800B9FA50B9019D4DB14FF0400383F31188C1
S31508003810BFF36F8FBFF34F8FFEE7002502F0C2FCA0
S31508003820A66BDFF864A10027002E43D1019B002B6D
S315080038307DD015B902A801F045FA02F0D5FC01F0D1
S3150800384053F802F0AFFC94F84430FF2B08BF84F815
S31508003850447094F84530FF2B08BF84F8457002F091
S31508003860C3FC01A902A801F03BFA002841D102F0E5
S3150800387099FCA36B002B33D102F0B6FC2368002B0E
S315080038804DD0019904F1240001F0C6F92046FFF74E
S3150800389031FE01F0B3F838B94FF08053CAF800305A
S315080038A0BFF34F8FBFF36F8F012502F07BFCA66B2A
S315080038B0002EBBD041462046E568FFF707FEB9F162
S315080038C0000F3AD12368013EA66313B901F0FEFA48
S315080038D060602369002B43D102F086FC012029E0B1
S315080038E002F082FC2046FFF705FE012501F086F866
S315080038F0DBE72046FFF7FEFD01F080F802F052FCF8
S31508003900A36BA3B102F070FC0125CEE74FF040038C
S3150800391083F31188BFF36F8FBFF34F8FFEE702F073
S3150800392041FC606801F036FA02F05EFCA9E702F095
S315080039305BFC002004B0BDE8F087636AE560002BF5
S31508003940CAD004F1240001F081F90028C4D00E4B36
S315080039504FF080521A60BFF34F8FBFF36F8FBBE7EC
S3150800396004F1100001F072F90028F0D1B4E7026CF6
S31508003970002A3FF441AF4FF0400383F31188BFF3A9
S315080039806F8FBFF34F8FFEE704ED00E008B502F036
S3150800399099F8642001F0A6F8F9E700BF2DE98048F8
S315080039A0002393B004228DE80C00BF4CBF49C048E1
S315080039B04FF4806200F08CFE012323702546BFEE8B
S315080039C0008AE4E04FF07E512961206D0699814214
S315080039D038BF85ED078A606D814240F248814FF015
S315080039E07E52EA61A16D099A8A4238BF85ED0A8A34
S315080039F0E16D8A4240F221814FF07E53AB62226C20
S31508003A00089B934238BF85ED018A626C934240F267
S31508003A10FC804FF07E536B60226E079B934238BF43
S31508003A2085ED0D8A626E934200F23A8106EB0B022F
S31508003A3007EE102A07EE903AB8EE477AF8EE677A5C
S31508003A40F0EE006ACBEB060697EEA67A07EE906ACA
S31508003A50F8EE677AC7EE276AC5ED0D6A9DF841301C
S31508003A609DF842609DF844009DF840109DF843205B
S31508003A702673207684F8241084F8302084F83C30A5
S31508003A80237B012B00F0BD802B7E012B00F0B98033
S31508003A9095F82430012B00F0B48095F83030012BCE
S31508003AA000F0AF8095F83C30012B00F0AA80012386
S31508003AB085F86830D5ED047A7E49F4EEC87AF1EED9
S31508003AC010FA48BF85ED048AD4ED077AF4EEC87A71
S31508003AD0F1EE10FA48BF85ED078AD4ED0A7AF4EEBE
S31508003AE0C87AF1EE10FA48BF85ED0A8AD4ED017A54
S31508003AF0F4EEC87AF1EE10FA48BF85ED018AD4EDE6
S31508003B000D7AF4EEC87AF1EE10FA48BF85ED0D8A03
S31508003B1094ED047AF7EE007AB4EEE77AF1EE10FA4D
S31508003B20C8BFC5ED047A94ED077AF7EE007AB4EECD
S31508003B30E77AF1EE10FAC8BFC5ED077A94ED0A7A6E
S31508003B40F7EE007AB4EEE77AF1EE10FAC8BFC5EDE3
S31508003B500A7A94ED017AF7EE007AB4EEE77AF1EE96
S31508003B6010FAC8BFC5ED017A94ED0D7AF7EE007A22
S31508003B70B4EEE77AF1EE10FAC8BFC5ED0D7AE06E3D
S31508003B8002230022FFF76EFD142000F0ABFFD4F8E5
S31508003B904CA0A16CD4F85490226DD4F85C80A36D27
S31508003BA00493676C236C039106A802920593666ECC
S31508003BB0D4F860B001F026FFA36C0A98029A03991C
S31508003BC0984238BF85ED048AE36C98423FF6FAAE10
S31508003BD00AEB010307EE103A07EE900AB8EE477AA9
S31508003BE0F8EE677AF0EE006AC1EB0A0A97EEA67A53
S31508003BF007EE90AAF8EE677AC7EE276AC5ED046A5B
S31508003C00E3E6002384F86830BEE7059AB91807EE9C
S31508003C10101A07EE903AB8EE477AF8EE677AF0EEA1
S31508003C20006ABF1A97EEA67A07EE907AF8EE677AD8
S31508003C30C7EE276AC5ED016AEEE6049908EB0103AB
S31508003C4007EE103A07EE902AB8EE477AF8EE677A4A
S31508003C50F0EE006AC1EB080897EEA67A07EE908A9E
S31508003C60F8EE677AC7EE276AC5ED0A6AC7E609EB72
S31508003C70020307EE103A07EE901AB8EE477AF8EE06
S31508003C80677AF0EE006AC2EB090997EEA67A07EEA4
S31508003C90909AF8EE677AC7EE276AC5ED076AA1E635
S31508003CA04FF07E536B63D9E6A00A0020D082000845
S31508003CB08D390008A40A00202DE9F0418CB006468B
S31508003CC0684601F09FFE002001F09EFF012001F0EA
S31508003CD089FFB7000CABD91940F2654251F8303C60
S31508003CE0A3F26B3393420AD90D461446684601F08F
S31508003CF089FE55F8303CA3F26B33A342F6D801206F
S31508003D0001F082FF012001F06DFF0CABDC1954F8BD
S31508003D10303CA3F2DA32952A10D96FF45170034475
S31508003D20942B0BD9684601F06DFE54F8303CA3F28B
S31508003D30DA326FF45171952A0B44F1D8012001F05B
S31508003D4063FF4FF4FA7000F0CDFE0CABC8240025D3
S31508003D5003EB0708684601F055FE58F8302C631E39
S31508003D6013F0FF041544F5D1042E11D8DFE806F048
S31508003D709FAD03BBC90007EE905ADFED7E6A7E4B06
S31508003D80F8EE677A87EEA67ABCEEC77A83ED107AE4
S31508003D90002001F027FF4FF4FA7000F0A3FE002080
S31508003DA001F032FF4FF4FA7000F09CFE002001F09B
S31508003DB019FF4FF4FA7000F095FE002001F024FF79
S31508003DC04FF4FA7000F08EFE012001F00BFF0CABE9
S31508003DD0DC1954F8303CA3F2B472952A11D9A3F22F
S31508003DE01F73942B02D80CE0942B0AD9684601F06D
S31508003DF009FE54F8303CA3F2B472952AA3F21F7355
S31508003E00F2D8012001F000FF0CAB4FF4FA701F4402
S31508003E1000F068FEC8240025684601F0F3FD57F84F
S31508003E20302C631E13F0FF041544F5D1042E11D867
S31508003E30DFE806F0758303912F0007EE905ADFED51
S31508003E404D6A4D4BF8EE677A87EEA67ABCEEC77ACE
S31508003E5083ED117A002001F0C5FE4FF4FA7000F0E8
S31508003E6041FE002001F0D0FE4FF4FA7000F03AFE51
S31508003E70002001F0B7FE4FF4FA7000F033FE002080
S31508003E8001F0C2FE4FF4FA7000F02CFE0CB0BDE84B
S31508003E90F08107EE905ADFED376A374BF8EE677A0E
S31508003EA087EEA67ABCEEC77A83ED137AD2E707EED9
S31508003EB0905ADFED306A304BF8EE677A87EEA67ACD
S31508003EC0BCEEC77A83ED147A62E707EE905ADFED07
S31508003ED0296A294BF8EE677A87EEA67ABCEEC77A86
S31508003EE083ED187A54E707EE905ADFED226A224BE3
S31508003EF0F8EE677A87EEA67ABCEEC77A83ED167A6D
S31508003F0046E707EE905ADFED1B6A1B4BF8EE677A19
S31508003F1087EEA67ABCEEC77A83ED127A38E707EE03
S31508003F20905ADFED146A144BF8EE677A87EEA67A94
S31508003F30BCEEC77A83ED157A8CE707EE905ADFED6B
S31508003F400D6A0D4BF8EE677A87EEA67ABCEEC77A4D
S31508003F5083ED197A7EE707EE905ADFED066A064B7F
S31508003F60F8EE677A87EEA67ABCEEC77A83ED177AFB
S31508003F7070E700BF00004843A00A002070B5044659
S31508003F8082B001F011FB01F00BFE002C2ED1204C63
S31508003F9040F20B4240F23A73A264E3642265636519
S31508003FA0A265E365226463642266636600230025CE
S31508003FB0184E23612A46E3616421A36201206660E4
S31508003FC0636384F868502570FFF726FBE066E36EA6
S31508003FD05BB10322009201952B464FF480620E498D
S31508003FE00E4800F075FB02B070BDFEE70420FFF72F
S31508003FF063FE0020FFF760FE0320FFF75DFE022048
S31508004000FFF75AFE0120FFF757FE014CCEE700BF27
S31508004010A00A0020000080BFE08200089D39000841
S31508004020014B1878704700BFA00A0020014B93F88F
S3150800403068007047A00A002008B5054BDA6E0146ED
S31508004040012310460022FFF7CDFB002008BD00BF64
S31508004050A00A0020D0ED006A9FED1E0A90ED017AB5
S31508004060D0ED027AA6EEA60A00B5A7EE070A83B037
S31508004070A7EEA70AF1EEC07AF4EE677AF1EE10FA27
S3150800408021D1F5EE407AF1EE10FA17D09FED125ACB
S31508004090D0ED005A90ED016AD0ED026A85EE277AD6
S315080040A0F0EEC77A65EEA75A26EE277A66EEA77A65
S315080040B0C0ED005A80ED017AC0ED027A9FED050A3F
S315080040C003B05DF804FB019002F012FD0198F0EED2
S315080040D0407AD6E700000000C3F51C4110B584B04D
S315080040E00C684A688B680194044601A802920393F7
S315080040F0FFF7B0FF94ED000A02F052FCDFED107AEC
S31508004100DDED026A60EE277AB7EE007A86EEA70A38
S31508004110B4EEC70AF1EE10FA05DDB0EE470A02F072
S3150800412087FC04B010BDFFEE007AB4EE670AF1EE24
S3150800413010FA48BFB0EE670A02F07AFC04B010BD68
S31508004140C3F51C4100B585B00168426883680191D2
S3150800415001A802920393FFF77DFFDDED017A9FED3B
S31508004160050AF1EE677A87EE800A02F061FC05B06F
S315080041705DF804FBC3F51C41F0B470EEA07A034663
S3150800418027EE811A60EEA00A00240026002780ED9B
S31508004190210A80F888200167284683ED1F1AC3ED97
S315080041A0200A1C605C609C60DC601C615C619C6130
S315080041B0DC611C625C629C62DC621C635C639C63FF
S315080041C01C655C659C65DC651C665C669C665C6754
S315080041D09C67C3E91067C3E91267F0BC704700BF64
S315080041E010B590F888302DED028B0446002B00F0B0
S315080041F08D80012B39D0002B65D0012B32D1D4ED1F
S31508004200017A9FED627AF0EEE77AF4EEC77AF1EE7C
S3150800421010FA00F19D80D4ED006A9FED5D0A236FC8
S315080042209FED5C5A93ED036A9FED5B4AD4ED215AE4
S3150800423094ED1D7AD4ED207AD4ED1F4A26EE056A50
S31508004240A5EE807A86EE045A67EE277A84ED1D7A03
S31508004250E0EE247A77EE857AE5EEA76AC4ED037A6E
S31508004260C4ED006ABDEC028B10BD006FFFF76AFF54
S31508004270236FDFED485AD3ED047A9FED474AD4ED14
S31508004280016A94ED215A94ED1E6A94ED207AD4EDD4
S315080042901F4A94F8883067EEA55A30EE660AC5EECE
S315080042A0847AA0EE056A26EE077A84ED1E6AA0EEE9
S315080042B0247A77EE277AE5EE276AC4ED047AC4ED08
S315080042C0016A002B99D1216FDFED326A91ED037AED
S315080042D0DFED315AD4ED017A9FED2C6A27EE267A66
S315080042E0F0EEE77AC7EE256AF4EEC67AF1EE10FA32
S315080042F0C4ED036A35D4D4ED007A94ED217ABDEC89
S31508004300028BE6EE877AC4ED007A10BD006F9FED4A
S31508004310217AD0ED047A9FED206AD4ED216A94EDD6
S31508004320018A67EE877A87EE867A84ED047AA7EEA5
S31508004330268AFFF707FFDFED197A9FED197A94F8B9
S31508004340883020EE270AA8EE070A84ED010A52E70C
S31508004350216F201DFFF7C2FED4ED006A30EE660A13
S315080043605DE72046D4ED217AB0EC018AA6EEA78A4D
S31508004370FFF7B4FEDFED097A9FED097A20EE270AEA
S31508004380A8EE070A84ED000A6CE700BF0000A04209
S3150800439000000000DB0F4940000034430AD7A33C65
S315080043A048E17A3F41F21003F0B500F2FF76C154B6
S315080043B007463446431E002203F8012FB3424FF046
S315080043C0000504F8012FF7D107F5805E41F20806CB
S315080043D041F2040441F20C0241F21103CEF80050F6
S315080043E00846BD513D51BD50FD54BDE8F04001F0B1
S315080043F097BC00BF2DE9F04141F210040646035D63
S315080044000D461746002B69D0012B2FD041F2080222
S3150800441056F80280A3B3012B24D0E7B106F5805ED7
S31508004420DEF80040601CC0F30A0080456BD0691EA8
S31508004430002502E0984527D01846C4F30A0401353A
S3150800444011F8012F3255431CAF42C3F30A03CEF8C5
S3150800445000000446EED141F21103F35CD3B13846AD
S31508004460BDE8F0812620FCF7B5FED6E72620FCF746
S31508004470BDFE41F20802335D56F80280002BCAD110
S315080044802520FCF7A7FEC8E741F211032F46F35C87
S31508004490002BE4D141F21004305D78B3012822D014
S315080044A041F2080441F210053359F15C01F08EFC23
S315080044B03359705D41F211020133C3F30A03012136
S315080044C03351B15401F06EFC735D8BB1012BC6D12B
S315080044D02620FCF77FFE3846BDE8F0812520FCF74C
S315080044E085FE335D92E72620FCF780FE305DD7E730
S315080044F02520FCF76FFE3846BDE8F0812520FCF73D
S3150800450075FE305DCCE70027A5E700BF6AB1F8B5B0
S3150800451015460F46064600242A1B39193046FFF76A
S3150800452069FF0444A542F7D8F8BD704738B500F5C9
S31508004530805341F208051A684359934204460BD042
S3150800454041F21002C15C805C01F040FC6359013302
S31508004550C3F30A03635138BD41F21003C05C01F08E
S315080045602BFC41F211030022E25438BD38B541F262
S3150800457010030446C05C01F03DFC41F2040141F21F
S315080045800C036258E558531CC3F30A03AB4203D025
S31508004590224482F80008635038BD00BF00F10803C2
S315080045A04FF0FF310022816080E80C00C360036190
S315080045B0704700BF00230361704700BF90E80C00F6
S315080045C010B49C688C609C684B600132616099608D
S315080045D05DF8044B08610260704700BF30B40D688F
S315080045E06B1C11D000F1080200E01A4653681C68DB
S315080045F0A542FAD204684B60013499608A6051601A
S315080046000861046030BC704702695368F2E700BF6E
S3150800461043688168026910B49960816854684B6080
S315080046201368A04208BF5160013B002101615DF893
S31508004630044B136018467047034B1A68D268D26851
S3150800464052685A60704700BF100B0020F8B5194D24
S31508004650AE68EB680446181D0F46FFF7D9FF38B950
S31508004660EB682A69D96A01238B4022EA03032B6186
S31508004670631C16D0EB680F4D3444A6425C6009D81B
S315080046802868E9680431FFF7A9FF6B689C4238BFC0
S315080046906C60F8BDA86AE968BDE8F8400431FFF720
S315080046A09DBF002FE6D0E96803480431BDE8F8400D
S315080046B0FFF784BF100B0020240B00204FF04003A7
S315080046C083F31188BFF36F8FBFF34F8FFEE700BFE9
S315080046D02DE9F84F4FEA82080646404689461F46A6
S315080046E00B9D02F051F8002800F0928082465C206B
S315080046F002F04AF80446002800F087804246C0F8CF
S3150800470030A0A5215046FCF725FA236BA8F104082A
S31508004710984428F0070809F1FF3309F10F0104F15D
S31508004720330213F8010F02F8010F187808B18B420B
S31508004730F7D10A9B062B28BF06234FF0000B04F17E
S31508004740040AE362E364504684F843B0C4F850B000
S315080047509946FFF72FFF04F11800FFF72BFFC9F161
S315080047600703C4F854B0A361246184F858B064629E
S315080047703A463146404601F0EDFC206005B12C6012
S315080047803A4D01F00FFD2B6C01332B64EB68002BBF
S3150800479042D0D5F80C317BB3E36A05F14408D5F865
S315080047A010212F690126324406FA03FE03EB830023
S315080047B062644EEA0703514608EB80002B61C5F890
S315080047C01021FFF7FBFE01F00FFDD5F80C31274A43
S315080047D07BB1D268E36AD26A9A420AD2244B4FF076
S315080047E080521A60BFF34F8FBFF36F8F3046BDE814
S315080047F0F88F3046BDE8F88FEA68E36AD26A9A42CB
S3150800480098BFEC6005F14408C9E7504601F0C8FFB7
S315080048104FF0FF30BDE8F88FEC602B6C012BBBD155
S3150800482005F1440805F1D00946464F463046143688
S31508004830FFF7B4FEBE42F9D10E4EA6F11400FFF7FB
S31508004840ADFE3046FFF7AAFEA6F1B800FFF7A6FEB2
S3150800485006F11400FFF7A2FEA6F1D000FFF79EFEB0
S31508004860C5F80090E36AAE6299E700BF100B002016
S3150800487004ED00E0F40B002030B5184C184919482F
S3150800488083B004F58E730025019300952B464FF4EB
S315080048908062FFF71DFF01280CD0013001D003B05C
S315080048A030BD4FF0400383F31188BFF36F8FBFF31A
S315080048B04F8FFEE74FF0400383F31188BFF36F8FE6
S315080048C0BFF34F8F4FF0FF336360C4F80C01A56048
S315080048D003B0BDE8304001F0F9BC00BF100B002062
S315080048E0F0820008354B0008034AD2F81831013324
S315080048F0C2F81831704700BF100B00202DE9F84F99
S315080049003D4CD4F81831002B47D1A6680136A6606D
S31508004910002E50D063689E4259D3DFF8DC8000250C
S3150800492008F1440B4FF0010A24E0D8F80030DB68A0
S31508004930DF687B6807F104099E42484621D3FFF7E2
S3150800494067FEBB6A07F118000BB1FFF761FEF86A4C
S3150800495023690AFA00F200EB8000134349460BEB81
S3150800496080002361FFF72AFEE368FA6ADB6A9A4247
S3150800497028BF01252368204A1B68002BD5D14FF094
S31508004980FF335360E368DB6A03EB830304EB8303BB
S315080049905B6C022B28BF012505E0D4F824310133CE
S315080049A0C4F824310025D4F82831002B18BF012576
S315080049B02846BDE8F88F23681B6853B14FF04003BB
S315080049C083F31188BFF36F8FBFF34F8FFEE7002580
S315080049D0D8E72368A26A2260A362D4F8203101339B
S315080049E0C4F8203123681B6813B1FFF725FE91E749
S315080049F04FF0FF3363608DE7100B00202DE9F84375
S31508004A00364CD4F8183143B94FF0400383F3118874
S31508004A10BFF36F8FBFF34F8FFEE701F0C3FBD4F8E8
S31508004A201831013BC4F81831D4F81851002D4BD170
S31508004A30236C002B48D02646012704F144081EE0C3
S31508004A40B36BDD6805F1040905F11800FFF7E0FD11
S31508004A504846FFF7DDFDE86A336907FA00F200EB1E
S31508004A6080001343494608EB80003361FFF7A6FD33
S31508004A70F368EA6ADB6A9A4228BFC6F82871E26ACE
S31508004A80164B002ADCD12DB11A68126812BB4FF0FA
S31508004A90FF325A60D4F824514DB10126FFF72EFF94
S31508004AA008B1C4F82861013DF8D1C4F82451D4F8F6
S31508004AB028314BB10A4B4FF080521A60BFF34F8F23
S31508004AC0BFF36F8F012400E0002401F08DFB204620
S31508004AD0BDE8F883FFF7B0FDDCE700BF100B002048
S31508004AE004ED00E008B560B1104BD3F8181189B190
S31508004AF04FF0400383F31188BFF36F8FBFF34F8FD7
S31508004B00FEE70B4B4FF080521A60BFF34F8FBFF38F
S31508004B106F8F08BDD3F818210132C3F81821FFF7A3
S31508004B2095FDFFF76BFF0028EBD008BD100B0020A2
S31508004B3004ED00E01F4DDFF880902DE988482C46EB
S31508004B402E46AB464FF0805809E0D4F81831D4F811
S31508004B50F8700133C4F81831FFF750FF77B9D5F864
S31508004B601431002BF1D1DBF84430012BF7D9C9F801
S31508004B700080BFF34F8FBFF36F8FF0E701F012FB92
S31508004B80D6F80431D3F80CA00AF10400FFF740FD6B
S31508004B90336C013B3364D6F81431013BC6F8143143
S31508004BA001F022FBDAF8300001F0FAFD504601F078
S31508004BB0F7FDD4E7100B002004ED00E0154AD2F803
S31508004BC0183113BBC2F828311369B3FA83F3DBB281
S31508004BD0C3F11F0303EB83039B00D018416C41B953
S31508004BE04FF0400383F31188BFF36F8FBFF34F8FE6
S31508004BF0FEE7816C1344496881644C33994204BFCB
S31508004C0049688164CB68D36070470123C2F82831AC
S31508004C10704700BF100B002060B110B50A4B0C4658
S31508004C20D9681831FFF7DAFC20460121BDE81040A3
S31508004C30FFF70CBD4FF0400383F31188BFF36F8F66
S31508004C40BFF34F8FFEE700BF100B0020F8B5C3680F
S31508004C50DD6835B305F11806194C3046FFF7D8FC60
S31508004C60D4F8183133BB2E1D3046FFF7D1FCE86A5D
S31508004C7023690122824004F1440700EB80001343B4
S31508004C80314607EB80002361FFF798FCE368E96A81
S31508004C90DA6A0B4B914286BF0120C3F8280100202F
S31508004CA0F8BD4FF0400383F31188BFF36F8FBFF34E
S31508004CB04F8FFEE7314604F12C00FFF77FFCE5E74E
S31508004CC0100B002008B530B1044BD3F820219B689F
S31508004CD080E80C0008BDFFF7F1FC00BF100B0020B0
S31508004CE080B331B370B50D46044601F05BFA2A6805
S31508004CF01B49531C88682ED0D1F8203126689E425D
S31508004D00636801D098420FD2C61AB2420CD9121A59
S31508004D101344D1F820018A682B6084E80500002531
S31508004D2001F062FA284670BD012501F05DFA2846B1
S31508004D3070BD4FF0400383F31188BFF36F8FBFF345
S31508004D404F8FFEE74FF0400383F31188BFF36F8F51
S31508004D50BFF34F8FFEE7002501F046FA284670BDDF
S31508004D60100B0020024B0122C3F82821704700BF10
S31508004D70100B0020064BD3F80C2132B1D3F81831AA
S31508004D80002B0CBF0220002070470120704700BF8F
S31508004D90100B0020002844D02DE9F041214CC36AAD
S31508004DA0E268D26A934214D28269002A04DBE26876
S31508004DB0D26AC2F1070282611A4D426903EB830384
S31508004DC005F1440606EB83039A4204D0EB68DB6AD6
S31508004DD0C362BDE8F08100F1040807464046FFF7C4
S31508004DE017FC68B9FA6A02EB820305EB83035B6C6E
S31508004DF033B92B69012101FA02F223EA02022A6178
S31508004E00E3682269D86AF86201238340134300EBFA
S31508004E108000414606EB80002361BDE8F041FFF7BC
S31508004E20CDBB7047100B002008B3F8B5254DEB68CD
S31508004E30984208D04FF0400383F31188BFF36F8F71
S31508004E40BFF34F8FFEE7036D43B94FF0400383F37B
S31508004E501188BFF36F8FBFF34F8FFEE7C16AC26C2D
S31508004E60013B9142036500D01BB10020F8BD00202C
S31508004E707047071D04463846FFF7CAFB60B9E06A63
S31508004E8000EB800305EB83035B6C2BB92B690122CE
S31508004E90824023EA02032B61E36C2A690A48E3622B
S31508004EA0012606FA03FE3946C3F1070703EB830317
S31508004EB04EEA020200EB8300A7612A61FFF77EFB38
S31508004EC03046F8BD100B0020540B0020044BDA685E
S31508004ED01AB1D9680A6D01320A65D868704700BFE9
S31508004EE0100B0020F8B5284C2848251D00262670EA
S31508004EF04FF40071606002224BF680330F27284674
S31508004F0084F82070E66004F144076161A2602361B9
S31508004F10E661FCF7D1FB602245F6C05326653946A3
S31508004F20626428463246E665A364FCF771F839469A
S31508004F3004222846FCF76CF8394608222846FCF76E
S31508004F4067F839460C222846FCF762F832460421EF
S31508004F501B20FCF707F91B20FCF73CF931462846CD
S31508004F60FCF7C6F904212846FCF7C2F908212846A9
S31508004F70FCF7BEF928460C21FCF7BAF96268D36833
S31508004F8043F00203D360F8BD3C0C0020002C01401E
S31508004F9003280DD8DFE800F023180D02DFED157A97
S31508004FA0154B20EE270A5B68BCEEC00A83ED0D0A96
S31508004FB07047DFED107A104B20EE270A5B68BCEECF
S31508004FC0C00A83ED0E0A7047DFED0A7A0A4B20EE17
S31508004FD0270A5B68BCEEC00A83ED0F0A7047DFED4F
S31508004FE0057A054B20EE270A5B68BCEEC00A83EDFE
S31508004FF0100A704700803B473C0C0020024B0022F9
S3150800500018781A70704700BF3C0C0020054B5A6888
S315080050101269920705D559686FF0020001220861E6
S315080050201A7070473C0C0020F0B5364A0368934264
S315080050308BB035D0344A934201D00BB0F0BD334C17
S31508005040636943F4003363616369042003F400333E
S31508005050039305A9022201230326072505904FF08D
S315080050609040039F06920793089609950827FBF731
S315080050706DFE1222002305A94FF09040079308966B
S31508005080099505970692FBF761FEE36943F4003339
S31508005090E361E36903F400330493049B0BB0F0BDAA
S315080050A01A4D6B6943F400236B616B6903F40023A3
S315080050B00193102602220123044605A91448019FDC
S315080050C00596032707260692079308970996FBF77E
S315080050D03DFE122200234FF0200E05A90C48069229
S315080050E0079308970996CDF814E0FBF72FFEAA69EF
S315080050F0236842F48042AA61AA6902F480420292B5
S31508005100029A97E700380140004400400010024028
S31508005110000800480268154B9A4200D0704703F50C
S31508005120644370B59A69124842F400629A619A69B2
S3150800513088B002214FF4D44602F400620025032405
S31508005140019204910791039605950694019A5A6966
S3150800515042F400125A615B6903F40013029303A92F
S31508005160029BFBF7F3FD08B070BD00BF002C0140A1
S31508005170001000480268214B9A4200D07047F0B5EB
S315080051801F4C2048636943F400336361636989B03F
S3150800519003F400330093009B636943F400136361CF
S315080051A0636903F400130125019303A988270326DD
S315080051B0019B0397049505950696FBF7C7FD2A46B6
S315080051C039461048FBF7AEFEE0270022052303A95F
S315080051D002254FF09040079306960397049505928B
S315080051E0FBF7B4FDA36943F48053A361A36903F4F1
S315080051F080530293029B09B0F0BD00BF0030014006
S315080052000010024000100048F0B50368B3F1804F63
S3150800521091B0044631D0614A934252D0604A9342D3
S3150800522072D0604A934200F093805F4A934201D05D
S3150800523011B0F0BD5D4B5E489A6942F480329A61BE
S315080052409A6903214FF4007602F48032122500246D
S3150800525009920E910F910B960C950D94099A5A691D
S3150800526042F480025A615B6903F480030A930BA92E
S315080052700A9BFBF76BFD11B0F0BD03F50433032160
S31508005280DA694C4842F00102DA61DA690E9102F0F5
S315080052900102019208270222122600250F920B9777
S315080052A00C960D95019A5A6942F480125A615B6907
S315080052B003F4801302930BA9029BFBF747FD2368AF
S315080052C0A9E73A4B3C48DA6942F00202DA61DA6940
S315080052D002F0020203920321022240271226002529
S315080052E00E910F920B970C960D95039A5A6942F4F4
S315080052F000225A615B6903F4002304930BA9049BFB
S31508005300FBF724FD236889E7284B2A48DA6942F027
S315080053100402DA61DA6902F0040205920321022224
S315080053204FF48057122600250E910F920B970C9674
S315080053300D95059A5A6942F480125A615B6903F41D
S31508005340801306930BA9069BFBF700FD236868E705
S31508005350164B9A6942F400529A619A69032002F43C
S31508005360005202214FF400471226002507920E909C
S315080053700F910B970C960D95079A5A6942F40032CD
S315080053805A615B6903F4003308930BA94FF0904008
S31508005390089BFBF7DBFC236847E700BF00040040D7
S315080053A0000800400034014000400140001002405F
S315080053B000140048000C00480008004830B591B0B9
S315080053C04FF480330125002102244FF4E01206A889
S315080053D0069507930E9308910D940F92FDF712F810
S315080053E000B1FEE703460F254FF48062214601A867
S315080053F002940393059301950492FDF70FFB00B100
S31508005400FEE7FDF739FCFBF781FC11B030BD00BFA4
S3150800541038B50368B3F1804F044619D04E4A934213
S3150800542026D04E4A934233D04D4A934240D04D4AF5
S31508005430934200D038BD237F022B47D04A4D012B1B
S315080054404CD095F834300133DBB285F8343038BDAA
S31508005450037F022B78D0444D012B6FD095F830206E
S3150800546023680132D2B285F830203B4A9342D8D11C
S31508005470237F022B5AD03C4D012B51D095F8312071
S3150800548023680132D2B285F83120344A9342CBD10F
S31508005490237F022B3CD0344D012B33D095F8322094
S315080054A023680132D2B285F832202D4A9342BED102
S315080054B0237F022B1ED02C4D012B15D095F83320B7
S315080054C023680132D2B285F83320B0E7042120469A
S315080054D0FBF7A4FF244D237F2861B0E7204600216F
S315080054E0FBF79CFF6862ACE700212046FBF796FFB6
S315080054F0E861E3E704212046FBF790FF1A4D237F76
S31508005500A860D9E700212046FBF788FFA861C5E710
